{
  "transactions": [
    {
      "hash": "0xa6fad1a159cdc58a55c4da2b7a859177b80811dfb1b2ad973026c1ec22095bf8",
      "transactionType": "CALL",
      "contractName": null,
      "contractAddress": "0x64fff11bca2bdd6af21df2d4eae26e740cff30fb",
      "function": "mintNft(string)",
      "arguments": [
        "ipfs://bafybeig37ioir76s7mg5oobetncojcm3c3hxasyd4rvid4jqhy4gkaheg4/?filename=0-PUG.json"
      ],
      "transaction": {
        "from": "0xbecf220d98db63519298b3c52bbfadab38c17d9f",
        "to": "0x64fff11bca2bdd6af21df2d4eae26e740cff30fb",
        "gas": "0x3da80",
        "value": "0x0",
        "input": "0xda86f4a900000000000000000000000000000000000000000000000000000000000000200000000000000000000000000000000000000000000000000000000000000057697066733a2f2f62616679626569673337696f6972373673376d67356f6f6265746e636f6a636d3363336878617379643472766964346a71687934676b61686567342f3f66696c656e616d653d302d5055472e6a736f6e000000000000000000",
        "nonce": "0x2c",
        "chainId": "0xaa36a7"
      },
      "additionalContracts": [],
      "isFixedGasLimit": false
    }
  ],
  "receipts": [
    {
      "status": "0x1",
      "cumulativeGasUsed": "0x8231bc",
      "logs": [
        {
          "address": "0x64fff11bca2bdd6af21df2d4eae26e740cff30fb",
          "topics": [
            "0xddf252ad1be2c89b69c2b068fc378daa952ba7f163c4a11628f55a4df523b3ef",
            "0x0000000000000000000000000000000000000000000000000000000000000000",
            "0x000000000000000000000000becf220d98db63519298b3c52bbfadab38c17d9f",
            "0x0000000000000000000000000000000000000000000000000000000000000000"
          ],
          "data": "0x",
          "blockHash": "0xf019b039e97033e4ecd1821abd114176906090ce29a26c724832e1cffdf40c3b",
          "blockNumber": "0x7b054b",
          "blockTimestamp": "0x67f24cb0",
          "transactionHash": "0xa6fad1a159cdc58a55c4da2b7a859177b80811dfb1b2ad973026c1ec22095bf8",
          "transactionIndex": "0x55",
          "logIndex": "0x79",
          "removed": false
        }
      ],
      "logsBloom": "0x00000000000000000000000000000000000000000000000000000000000000000000000000000000000000008000000000000000000000000000000000000000000000000000000000000008000001000000000000000000000000000000000000000000020000000000000000000800000800000010000000000010000000000000000000000000000000000000000000000000000004000000000000000000000000000000000000000000000000000000000000000000000000000000000000000002000000000000000000000000000000000010000000000000000020000000000000000000000000000000000000000000000000000000000000000000",
      "type": "0x2",
      "transactionHash": "0xa6fad1a159cdc58a55c4da2b7a859177b80811dfb1b2ad973026c1ec22095bf8",
      "transactionIndex": "0x55",
      "blockHash": "0xf019b039e97033e4ecd1821abd114176906090ce29a26c724832e1cffdf40c3b",
      "blockNumber": "0x7b054b",
      "gasUsed": "0x2ca36",
      "effectiveGasPrice": "0x763eac6",
      "from": "0xbecf220d98db63519298b3c52bbfadab38c17d9f",
      "to": "0x64fff11bca2bdd6af21df2d4eae26e740cff30fb",
      "contractAddress": null
    }
  ],
  "libraries": [],
  "pending": [],
  "returns": {},
  "timestamp": 1743932594,
  "chain": 11155111,
  "commit": "f8e23df"
}